:020000040800F2
:10000000C0070020910100081B160008C514000855
:1000100019160008950500082719000800000000BF
:100020000000000000000000000000001F16000893
:10003000A1060008000000001D1600088B1600082D
:10004000AB010008AB010008AB010008AB010008E0
:10005000AB010008AB010008AB010008AB010008D0
:10006000AB010008AB010008AB010008AB010008C0
:10007000AB010008AB010008AB010008AB010008B0
:10008000AB010008AB010008AB010008AB010008A0
:10009000AB010008AB010008AB010008AB01000890
:1000A000AB010008AB010008AB010008AB01000880
:1000B000AB010008AB010008AB010008AB01000870
:1000C000AB010008AB010008AB010008AB01000860
:1000D000AB010008AB010008AB010008AB01000850
:1000E000AB010008AB010008AB01000800F002F80A
:1000F00000F03FF80AA090E8000C82448344AAF183
:100100000107DA4501D100F034F8AFF2090EBAE880
:100110000F0013F0010F18BFFB1A43F0010318473B
:10012000D81C0000F81C0000103A24BF78C878C121
:10013000FAD8520724BF30C830C144BF04680C60ED
:10014000704700000023002400250026103A28BF35
:1001500078C1FBD8520728BF30C148BF0B60704739
:10016000642900F07180002070471FB51FBD10B5D5
:1001700010BD00F0CCF91146FFF7F7FF01F080FD4C
:1001800000F0EAF903B4FFF7F2FF03BC00F0F2F964
:100190000948804709480047FEE7FEE7FEE7FEE71B
:1001A000FEE7FEE7FEE7FEE7FEE7FEE70448054957
:1001B000054A064B70470000E3160008ED000008F2
:1001C000C0010020C0070020C0030020C0030020A1
:1001D0000FB41CB5074B06AA7B44694600900598EE
:1001E00000F07DF90020694600F08CF91CBC5DF838
:1001F00014FB00002903000070B5044685690068FF
:10020000C10601D5302600E02026C00707D070BD0A
:10021000D4E9012130469047206A401C20626D1EBF
:10022000F6D570BD70B5044685690078C00707D162
:1002300070BDD4E9012120209047206A401C206233
:100240006D1EF6D570BD00002DE9F0410646002474
:1002500010687529314616A510D0AFF3008000282C
:1002600002DA404213A507E031688A0701D512A5DA
:1002700002E0490704D511A5012401E0AFF3008095
:1002800000210A2206F1240709E0B0FBF2FCB0FBD2
:10029000F2F302FB1C00303078541846491C002849
:1002A000F3D123462A463046BDE8F04100F0B9B804
:1002B000000000002D0000002B00000020000000C6
:1002C0002DE9F0474FF0000A89460446C0F820A007
:1002D0002046E1688847002876D0252806D0D4E952
:1002E00001219047206A401C2062F1E7E168204626
:1002F00000258847C4F81CA006460027C4F818A0AB
:100300002A2E09D0304601F01FFB38B304EB8708D2
:10031000303EC8F8186019E059F8041B204604EB79
:1003200087029161E1688847012F064618D1E0698C
:10033000002820DA25F020051DE0D8F8180000EB91
:10034000800006EB40003038C8F818002046E1680D
:100350008847064601F0F8FA0028EED1012F0AD0AE
:100360002E2E08D12046E16888477F1C0646022FC2
:1003700045F02005C4DBA069002803DA404245F0BF
:100380000105A061E80701D025F01005B6B1A6F17E
:100390004100192802D8203645F400654A46314606
:1003A000204625604D46FFF7DBFE58B1012806D0F8
:1003B000ED1D25F0070000F1080989E704E005F1CB
:1003C000040985E730468AE7206ABDE8F0874FF0E8
:1003D000000200B5134694469646203922BFA0E895
:1003E0000C50A0E80C50B1F12001BFF4F7AF0907A1
:1003F00028BFA0E80C5048BF0CC05DF804EB890092
:1004000028BF40F8042B08BF704748BF20F8022BD4
:1004100011F0804F18BF00F8012B704770477047EC
:1004200070472DE9F0470D4699469246044600F183
:1004300024080168880604D5E06921F010012160D4
:1004400000E00120A84201DD471B00E00027A16970
:100450007A1902EB0900081AA0612078C00602D4BC
:100460002046FFF7C9FE002608E0D4E901211AF86A
:1004700006009047206A401C761C20624E45F4DB43
:100480002078C0060AD52046FFF7B6FE06E0D4E97C
:10049000012130209047206A401C2062381EA7F1BD
:1004A0000107F4DC07E0D4E9012118F805009047C2
:1004B000206A401C2062281EA5F10105F3DC2046BD
:1004C000FFF7B0FE2078000602D50220BDE8F087D5
:1004D0000120FBE701694A1C02610878704700B5FA
:1004E0008FB0CDE901310021059105497944CDE96D
:1004F000031011466846FFF7E3FE0FB000BD000091
:10050000E5FFFFFF0A6802F8010B0A6070477546B5
:1005100000F02CF8AE4605006946534620F007006F
:10052000854618B020B5FFF741FEBDE820404FF0EA
:1005300000064FF000074FF000084FF0000B21F0CD
:100540000701AC46ACE8C009ACE8C009ACE8C0099A
:10055000ACE8C0098D46704710B50446AFF3008083
:100560002046BDE81040FFF70DBE00000048704770
:100570005C01002001491820ABBEFEE72600020006
:10058000704700F00F01000900EB800001EB400014
:10059000C0B27047FEE70A21B0FBF1F201FB120284
:1005A000B0FBF1F042EA0010C0B270473EB504461D
:1005B00007200090217901AB0022206801F0E2F9C8
:1005C000002830D09DF8040000F07F00FFF7D9FF2D
:1005D000E0719DF80500FFF7D4FFA0719DF80610AB
:1005E000480621D5C1F3001201F00F0002EB820290
:1005F00000EB4200890603D50C2804D20C3002E03F
:100600000C2800D1002060719DF80800FFF7B9FFA9
:1006100020729DF80900FFF7B4FF60729DF80A0090
:10062000FFF7AFFFA0723EBD0846FFF7AAFFEAE75B
:100630000160027170472DE9FE4304460AA8904606
:1006400090E8E00089461846FFF7A5FF8DF8040002
:100650004046FFF7A0FF8DF805004846FFF79BFFD7
:1006600000F03F008DF8060001208DF807002846B5
:10067000FFF791FF8DF808003046FFF78CFF8DF8EB
:1006800009003846FFF787FF8DF80A000720009021
:10069000217901AB0022206801F024FABDE8FE8335
:1006A0007047000070B5044600F008F90546601C6C
:1006B00002D004480078044400F000F9401BA04236
:1006C000FAD370BD080000202DE9F84FDFF8B8918B
:1006D0000024A9F1040B23460F2709F1040AABF10A
:1006E000040EC9E00125A5402A40AA427DD1674EEB
:1006F000D1F804C0ACEB0608B44532D014DCBCF130
:10070000030F3AD009DCBCF1000F2AD0BCF1010F75
:100710001CD0BCF1020F31D11DE0BCF1110F17D07C
:10072000BCF1120F2AD119E0B8F5881F19D006DCE8
:10073000B8F5803F15D0B8F5801F1FD111E0B8F58E
:10074000001F0ED0B8F5041F18D10AE0CB6815E0E1
:10075000CB681B1D12E0CB6808330FE0CB680C336D
:100760000CE08B682BB1012B4FF0080303D04561DF
:1007700004E0042302E0056100E00023FF2A01D821
:10078000064601E000F104064FEA840501D9A5F10F
:100790002005D6F8008007FA05FC28EA0C0803FAC1
:1007A00005F548EA0508C6F800804D68ED0062D5F9
:1007B000374DAE6946F00106AE61AD6924F003061F
:1007C00005F001050095334D06EB050CDCF80850EB
:1007D000A607360F07FA06F825EA0805DFF8B880FD
:1007E000404503D14FF0000817E044E0DFF8AC804B
:1007F000404502D14FF001080FE0DFF8A4804045EA
:1008000002D14FF0020808E0DFF89880404502D19D
:100810004FF0030801E04FF0040808FA06F848EA30
:100820000508CCF808804D68D9F80060ED024D4607
:1008300001D5164300E096432E604D68DAF800605B
:10084000AD02554601D5164300E096432E604D6833
:10085000DBF80060AD035D4601D5164300E096432A
:100860002E604D68DEF80060ED03754601D5164335
:1008700000E096432E60641C0D682A46E5407FF434
:1008800031AFBDE8F88F00000804014000001110EE
:10089000001002400000014000080140000C01402F
:1008A00000100140001401408068084000D0012081
:1008B00070470AB1016170470904FBE7014880688D
:1008C000704700000800002070B5040025D094F89F
:1008D0003D00002520B984F83C50204600F0B8F8CF
:1008E000242084F83D002068016821F001010160A6
:1008F0002068016841F4004101602068016821F42A
:100900000041016000F0FCF94D4A6168914201D854
:100910004C4900E04C49884201D2012070BD4B494E
:100920002368B0FBF1F15E6826F03F060E435E607F
:100930006368934206D94FF4967359434FF47A7320
:10094000B1FBF3F12368491C1E6A26F03F063143D0
:1009500019626168914210D84900401EB0FBF1F263
:10096000521CC2F30B02042A01D2042022E0B0FB85
:10097000F1F0401CC0F30B001CE0A268F2B301EBE5
:10098000C10303EB0116431EB3FBF6F35B1C43F4F8
:1009900080431B0549D092B301EBC10202EB011168
:1009A000401EB0FBF1F0401CC0F30B0040F480404F
:1009B00040F400402168CA694CF6FF739A43104323
:1009C000C861D4E9071001432068026822F0C00220
:1009D00011430160D4E9030101432068826848F2B1
:1009E000FF339A4311438160D4E90501084321682C
:1009F000CA6822F0FF021043C86001E00EE016E072
:100A00002068016841F0010101602564202084F81C
:100A10003D00256384F83E50002070BD01EB410687
:100A2000431EB3FBF6F35B1CB3E70120C2E701EB07
:100A30004101401EB0FBF1F0401CC0F30B00B7E7D2
:100A4000A086010080841E0000093D0040420F0086
:100A500010B586B0002100910191029103910068C8
:100A60001349884222D1134CA06940F00800A061CC
:100A7000A069694600F0080004904FF440700090AF
:100A800012200190032003900B48FFF71DFE0B4836
:100A9000416841F0E06141F002014160E06940F4E9
:100AA0000010E061E06900F40010049006B010BD91
:100AB0000054004000100240000C014000000140C2
:100AC0000248816802781144816070470800002064
:100AD000074810B5016841F010010160032000F0E3
:100AE00067F80F2000F006F800F024F8002010BD91
:100AF0000020024070B50D4D04464FF47A712878FD
:100B0000B1FBF0F00A490968B1FBF0F000F0BEFA61
:100B100048B9102C07D200222146501E00F028F8B8
:100B200000206C6070BD012070BD00000800002036
:100B3000140000200C4808B5816941F00101816171
:100B4000816901F001010091C16941F08051C161E9
:100B5000C06900F0805000900448416821F0E061D5
:100B600041F00071416008BD0010024000000140EA
:100B7000F0B40E4B1B680C46C3F30223C3F1070508
:100B8000042D00D90425191D072901D2002300E0F6
:100B9000DB1E012606FA05F1491E214099409E40C0
:100BA000761E16403143F0BC00F0BEBE0CED00E0F6
:100BB000064900F0070208684FF6FF03184040EAB4
:100BC0000220034A10430860704700000CED00E06B
:100BD0000000FA052DE9F0470F46050061D0434EAD
:100BE000306800F00700B84209D2306820F00700F2
:100BF00038433060306800F00700B84251D12868AF
:100C00003B4C810712D5400703D5606840F4E06093
:100C100060602878000703D5606840F46050606029
:100C20006068A96820F0F000084360602878C00779
:100C300028D06868012810D02168022810D08907C0
:100C400000292EDA616821F0030101436160FFF79A
:100C500035FE804641F288390DE021688903EFE7CF
:100C60008901EDE7FFF72AFEA0EB0801494502D90B
:100C70000320BDE8F0876068696800F00C00B0EB05
:100C8000810FEFD1306800F00700B8420BD930680F
:100C900020F0070038433060306800F00700B842A9
:100CA00001D00120E5E72878400705D56068E968AC
:100CB00020F4E060084360602878000706D560688B
:100CC000296920F4605040EAC100606000F028F813
:100CD0006168084AC1F30311515CC84006490860C5
:100CE00006480068FFF706FF0020C2E70020024028
:100CF00000100240DE1D0008140000200C0000203F
:100D00000448054900684968044AC1F30221515C5E
:100D1000C84070471400002000100240EE1D00087B
:100D20000E4A51680E4801F00C03042B11D0082B19
:100D30000FD10C48C1F38343C903C05C0AD5516885
:100D4000084AC1F34041921E515C054A5043B0FB32
:100D5000F1F070470449484370470000001002401A
:100D600000127A00CE1D000800093D002DE9F84F61
:100D7000040070D02078C04DC00749D06868C0F327
:100D80008100012807D06868C0F38100022809D1DA
:100D90006868C00306D52868800339D560680028D4
:100DA000E7D035E06068B0F5803F0BD010B1B0F50A
:100DB000A02F11D0286820F480302860286820F403
:100DC000802002E0286840F480302860606890B19C
:100DD000FFF774FD06460AE0286840F4802028608A
:100DE000F0E700BFFFF76AFD801B642873D828680E
:100DF0008003F7D50CE0FFF761FD064605E000BF74
:100E0000FFF75CFD801B6428F0D828688003F7D4C6
:100E100020789A4E80074FF001094FF0000839D52D
:100E2000686810F00C0F07D06868C0F381000228D2
:100E300009D16868C00306D42868800714D52069E2
:100E4000012808D110E02069B0B1C6F80090FFF782
:100E500035FD074605E00AE1FFF730FDC01B02281B
:100E6000C4D828688007F7D52868616920F0F800A1
:100E700040EAC10028600DE0C6F80080FFF71EFDC3
:100E8000074604E0FFF71AFDC01B022823D8286894
:100E90008007F7D4207800072CD57948A169D9B10B
:100EA000C0F80090FFF70AFD074604E0FFF706FDD3
:100EB000C01B02280FD8686A8007F7D571484FF425
:100EC000FA510068B0FBF1F0009000BF0098411E9D
:100ED0000091FAD20EE080E0C0F80080FFF7EEFC4F
:100EE000074604E0FFF7EAFCC01B022875D8686AD1
:100EF0008007F7D42078400760D5E8690027C00054
:100F000008D4E86940F08050E861E869012700F002
:100F1000805000905C480168C90513D4016883467D
:100F200041F480710160FFF7C9FC824606E000BF12
:100F3000FFF7C4FCA0EB0A0064284ED8DBF80000E1
:100F4000C005F5D5E06801280AD008B1052813D0FE
:100F5000286A20F001002862286A20F0040002E0DC
:100F6000286A40F001002862E06841F2883B98B1AD
:100F7000FFF7A4FC82460BE0286A40F004002862D8
:100F8000EEE700BFFFF79AFCA0EB0A0159455AD8DB
:100F9000286A8007F6D50CE0FFF790FC824605E052
:100FA000FFF78CFCA0EB0A0159454CD8286A800752
:100FB000F6D41FB1E86920F08050E861E06988B399
:100FC0006968C1F38101022944D00228C6F8608013
:100FD00004D0FFF773FC044638E034E0FFF76EFC02
:100FE000074604E0FFF76AFCC01B02282BD82868DC
:100FF0008001F7D4206AB0F5803F05D16868A16808
:1010000020F4003008436860D4E9080108436968A7
:1010100021F4741108436860C6F86090FFF74EFC35
:10102000044606E025E000BFFFF748FC001B02284D
:1010300009D828688001F7D51BE000BFFFF73EFC08
:10104000001B022802D90320BDE8F88F2868800120
:10105000F4D40EE00128F7D06868226A00F48031E9
:10106000914204D1616A00F47010884201D00120DD
:10107000EAE70020E8E700000010024000004242DA
:1010800080044242140000200070004010B5401E51
:10109000B0F1807F01D3012010BD4FF0E0246061EA
:1010A0000F21601700F040FC0020A06107202061A4
:1010B000002010BD70B590F83C20012A26D00124F4
:1010C00080F83C40022280F83D2003685A689D6801
:1010D00022F070060A6832435A600D4B02689A4249
:1010E00008D0B2F1804F05D00A4B9A4202D00A4B89
:1010F0009A4204D1496825F080031943916080F831
:101100003D40002180F83C10084670BD022070BDB3
:10111000002C0140000400400008004010B504000D
:1011200003D094F83D0010B107E0012010BD00206D
:1011300084F83C00204600F01FF8022084F83D00AF
:10114000211D206800F0CEFA012084F8460084F8C2
:101150003E0084F83F0084F8400084F8410084F8A1
:10116000420084F8430084F8440084F8450084F881
:101170003D00002010BD000008B500680649884207
:1011800008D10648816941F400618161806900F4F9
:101190000060009008BD0000002C014000100240DB
:1011A00070B5044690F83C000025012817D00126B0
:1011B00084F83C60022084F83D002068826822F0B8
:1011C000770222F47F4282600868502838D00DDC14
:1011D00020284FD005DC90B3102811D14AE002201E
:1011E00070BD302846D040280AD13BE060282FD07F
:1011F00070280DD0B0F5805F03D0B0F5005F12D03D
:10120000012584F83D60002084F83C00284670BD2C
:10121000CB68D1E90121206800F0ADFA206881682F
:1012200041F0770109E0CB68D1E90121206800F0A5
:10123000A2FA2068816841F480418160E1E719E009
:10124000CA684968206800F04BFB5021206806E01E
:10125000CA684968206800F054FB6021206800F0EB
:1012600094FACEE7CA684968206800F039FB40214B
:101270002068F4E7226801461046F0E700B585B023
:10128000002100910191029103910068B0F1804F1B
:101290001BD10F48816941F0040181618069694671
:1012A00000F0040004904FF40040009002200190F0
:1012B00003900848FFF708FA0748416821F4407195
:1012C00041F0E06141F48071416005B000BD000073
:1012D00000100240000801400000014070B50446C3
:1012E00090F83C0000260D4601280FD0012084F81C
:1012F0003C006AB1042A1DD0082A2FD00C2A3FD006
:101300000126002084F83C00304670BD022070BDEC
:10131000206800F043FA2068816941F0080181618A
:101320002068816921F004018161206881692A694E
:10133000114311E0206800F059FA2068816941F4F6
:10134000006181612068816921F480618161206888
:1013500081692A6941EA02218161D2E7206800F0AF
:1013600071FA2068C16941F00801C1612068C16952
:1013700021F00401C1612068C1692A69114311E0AB
:10138000206800F08BFA2068C16941F40061C161F6
:101390002068C16921F48061C1612068C1692A693E
:1013A00041EA0221C161ACE710B5040003D094F812
:1013B0003D0010B107E0012010BD002084F83C0082
:1013C000204600F01FF8022084F83D00211D20680F
:1013D00000F088F9012084F8460084F83E0084F883
:1013E0003F0084F8400084F8410084F8420084F80B
:1013F000430084F8440084F8450084F83D00002050
:1014000010BD000008B50068B0F1804F08D1054854
:10141000C16941F00101C161C06900F001000090A3
:1014200008BD00000010024010B50446022249B178
:1014300004290ED0082913D094F84100012816D0B1
:10144000012010BD94F83E000128F9D184F83E2017
:101450000FE094F83F000128F2D184F83F2008E023
:1014600094F840000128EBD184F8402001E084F892
:1014700041200122206800F071F90F49206888425C
:1014800003D1426C42F4004242642068884208D092
:10149000B0F1804F05D00949884202D008498842FE
:1014A00004D1816801F00701062903D0016841F0E9
:1014B00001010160002010BD002C0140000400402B
:1014C00000080040FEE7000070B586B000241A480E
:1014D0000094019402940394816941F004018161B4
:1014E000816901F004010491816941F00801816181
:1014F0008069124E00F008000490002240F20F2193
:101500003046FFF7D6F90F20009011200125CDE9D4
:1015100001050320039069463046FFF7D5F86802BD
:10152000CDE900050220CDE9024069463046FFF7CB
:10153000CBF806B070BD000000100240000801406A
:1015400010B586B0002417480094019402940394C7
:1015500004941349059401600721C0E901144FF672
:10156000FF71C0E9031444618461FFF7D7FD08B13E
:1015700072B6FEE74FF48050009069460948FFF7C5
:101580000FFE08B172B6FEE7049404A9054805945D
:10159000FFF790FD002801D072B6FEE706B010BD3F
:1015A000002C01406C00002010B58AB00024079484
:1015B0001C2168460894FEF70AFF16484FF0804148
:1015C00001600721C0E9011444F61F61C0E903145A
:1015D00080218161FFF7E8FE08B172B6FEE707944B
:1015E00007A90C480894FFF765FD08B172B6FEE73D
:1015F0006020CDE900040294002269460548049465
:10160000FFF76CFE08B172B6FEE70248FFF736FE40
:101610000AB010BDB4000020FEE7FEE77047704737
:1016200018B5044640F6E9000090207A4FF48E6326
:10163000B422002100F0C0FB616849B104290BD03D
:1016400008290DD00C2902D121680968086418BD49
:1016500021680968486318BD21680968886318BD56
:1016600021680968C86318BDC0E90012002202722F
:101670000B6807229A62096844F61F62CA6203C8AF
:10168000FFF7D2BE0172FFF7CBBFFFF719BA10B553
:1016900090B028216846FEF79AFE14210AA8FEF7AA
:1016A00096FE022000900120049010200024059056
:1016B00007946846FFF75AFB08B172B6FEE70F20A1
:1016C000CDE90A044FF48060CDE90C4000210AA85E
:1016D0000E94FFF77FFA002801D072B6FEE710B033
:1016E00010BD7047F0B50268194B1A4C1A4D4FF0F7
:1016F0008047984205D0B84203D0A04201D0A8420A
:1017000003D122F070064A683243984205D0B842AD
:1017100003D0A04201D0A84203D122F44074CA6889
:1017200022434C6922F08002224302608A68C2622E
:101730000A688262984201D109690163012141610D
:101740000169C90703D0016921F001010161F0BD00
:10175000002C0140000400400008004010B501F0DA
:101760001F030121046A99408C430462016A9A4074
:101770001143016210BD10B5846842EA032224F4CB
:101780007F440A432243826010BD826822F07002C7
:101790000A4342F0070181607047000030B5036AD8
:1017A000026A22F0010202624268846924F0730531
:1017B0000C682C4323F002058B682B430A4DA8428A
:1017C0000BD123F00805CB6822F440722B434D69FE
:1017D00023F0040315438A692A43426084614968FF
:1017E0004163036230BD0000002C014030B5026A45
:1017F000036A23F010030362436884690D6824F4CC
:10180000E64444EA05248D6822F0200242EA0512EB
:101810000B4DA8420ED1CD6822F0800242EA05129B
:101820004D6923F4406343EA85038D6922F0400249
:1018300043EA85034360846149688163026230BD85
:10184000002C014030B5036A026A22F48072026201
:101850004268C46923F4007324F073050C682C43B8
:101860008D6843EA05230C4DA8420ED1CD6823F4C0
:10187000006343EA05234D6922F4405242EA05120F
:101880008D6923F4806342EA05124260C4614968AD
:10189000C163036230BD0000002C014030B5046A12
:1018A000026A22F4805202624268C3690D6823F41E
:1018B000E64343EA05238D6824F4005444EA0534E2
:1018C000064DA84204D14D6922F4804242EA8512B5
:1018D0004260C36149680164046230BD002C01406C
:1018E00010B5036A046A24F001040462846924F0D8
:1018F000F00444EA021423F00A020A4384610262FB
:1019000010BD10B5036A046A24F0100404628469EF
:1019100023F0A00324F4704444EA023243EA0111A4
:101920008261016210BDFEE70907090E002804DB91
:1019300000F1E02080F80014704700F00F0000F183
:10194000E02080F8141D704730380A2801D20120A9
:1019500070470020704708B500200090401C0090A0
:101960000528FBD308BD10B5044602982160A2806B
:10197000A360A081204600F07DF82046BDE810401D
:1019800000F06EB82DE9F0411E4617460C46804621
:10199000069D00F082F86006010E404600F0CAF88D
:1019A000002828D03946404600F0C4F8002822D04C
:1019B000404600F072F8012000EB4400C1B24046FE
:1019C00000F0B8F8002816D000246F1E06E00121B0
:1019D000404600F013F83055641CE4B2BC42F6DB1C
:1019E0000021404600F00AF8711901F8010C404648
:1019F00000F066F80120BDE8F08100002DE9F0411B
:101A00000F468046002500F035F807245FF00106F8
:101A1000FFF7A1FF404600F023F8FFF79CFF404688
:101A200000F032F818B106FA04F02843C5B2404677
:101A300000F01BF8641EEBD5404617B100F01FF80C
:101A400001E000F017F8FFF786FF404600F008F8C5
:101A5000FFF781FF404600F008F82846BDE8F08116
:101A6000818800680122FEF724BF81880068002277
:101A7000FEF71FBF818980680122FEF71ABF8189A6
:101A800080680022FEF715BF10B581898068FEF7D7
:101A90000BFF012800D0002010BD10B50446FFF751
:101AA000E9FF2046FFF7DCFFFFF755FF2046FFF771
:101AB000E6FFFFF750FF2046BDE81040FFF7D5BF17
:101AC00010B50446FFF7DBFFFFF745FF2046FFF7A1
:101AD000C7FFFFF740FF2046FFF7CCFFBDE81040EF
:101AE000FFF739BF2DE9F0411D4617460C468046E9
:101AF000069EFFF7D2FF6006010E404600F01AF87E
:101B0000002815D03946404600F014F800280FD0C0
:101B1000002407E0295D404600F00CF8002807D0BB
:101B2000641CE4B2B442F5D34046FFF7C9FF01207C
:101B3000BDE8F0812DE9F04107240E460746012556
:101B400005FA04F03042384602D0FFF793FF01E077
:101B5000FFF795FFFFF7FFFE3846FFF781FFFFF71E
:101B6000FAFE3846FFF781FF641EE9D53846FFF7D5
:101B700081FFFFF7F0FE3846FFF772FFFFF7EBFE3D
:101B80003846FFF781FF80F001043846FFF76DFF0C
:101B90002046BDE8F0813AB1012A07D0022A09D0D7
:101BA000032A09D1D43102E0803100E0C031C9B24A
:101BB00000F023B89431FAE7704710B5016004468D
:101BC0000271332100F019F83221204600F015F897
:101BD0002821204600F011F80C21204600F00DF8D5
:101BE0000621204600F009F80121204600F005F802
:101BF000BDE810400220FEF755BD1CB501F0F00213
:101C000042F004038DF8043009018DF8052041F0FD
:101C100004028DF806208DF8071004210091017947
:101C2000006801AB0022FFF75DFF1CBD1CB501F091
:101C3000F00242F005038DF8043042F00102090180
:101C40008DF8052041F005028DF8062041F00101D4
:101C50008DF80710042100910179006801AB002282
:101C6000FFF740FF1CBD70B50C46054603E0284653
:101C7000641CFFF7DBFF21780029F8D170BD00005C
:101C80000EB5FEF725FFFFF702FDFFF71DFC3E48EE
:101C90003C494FF4804201603C4941600021816031
:101CA000C0E9031241618161C1610162FEF70CFE6E
:101CB00008B172B6FEE7FFF743FCFFF775FC0220A0
:101CC000334C00903048234601221946E430FFF798
:101CD0004AFE082000902C48234604221946F4307E
:101CE000FFF741FE28496822F43101F11000FEF7A8
:101CF0009FFC19220B2113208DE8070000231422DA
:101D000001212448FEF797FC224927222039224846
:101D1000FFF753FF1F490022683901F17400FFF7F4
:101D2000A3FC1C485A210C30FFF7ACFC194C194895
:101D3000FEF73CFCE07900901648A379627917A180
:101D40001830FEF745FAA07A00901248637A227A9A
:101D500015A12C30FEF73CFA002208210E48FFF7AF
:101D60001AFF0C490C481831FFF77DFF01220621AC
:101D70000948FFF710FF074907482C31FFF773FFA9
:101D8000D5E700000054004018000020A0860100A4
:101D9000000801401C010020000000202532643AA8
:101DA0002532643A253264002532642D2532642DB3
:101DB000323025326400000010B5401A029CE41A4B
:101DC0006043511AB0FBF1F0184410BD0102020348
:101DD0000405060708090A0B0C0D0E0F1010000071
:101DE00000000000000001020304060708090000CB
:101DF0000000010203040000181E0008000000207B
:101E00001800000028010008301E000818000020FB
:101E1000A8070000440100080000000000000000C6
:101E200001000000100000000000000000127A0015
:04000005080000ED02
:00000001FF
